:100000000C94C6000C94EE000C94EE000C94EE00E0
:100010000C94EE000C94EE000C94EE000C94EE00A8
:100020000C94EE000C94EE000C94EE000C94EE0098
:100030000C94EE000C94EE000C94EE000C94EE0088
:100040000C94AE050C94EE000C941E060C94F8056E
:100050000C94EE000C94EE000C94EE000C94EE0068
:100060000C94EE000C94EE000A0B0C0D0E0F726156
:1000700064696F20626567696E206661696C65649A
:10008000006261636B626F6E655F6F6B00626164DB
:1000900020736572766572207265706C7900747871
:1000A000207061795F726573702D3E6E6F6465209C
:1000B000007365727665722074696D656F75740082
:1000C000726164696F5F6572726F72202873657206
:1000D000766572290074782D3E736572766572209C
:1000E0006661696C656400756E6B6E6F776E206E0D
:1000F0006F64655F69643B2064726F702073776919
:100100007065002074786E3D0020726561646572D0
:100110003D007278207377697065206E6F64653D6D
:1001200000636865636B5F737461747573206E6FD1
:1001300064653D00000000080002010000030407A0
:100140000000000000000000000000002500280062
:100150002B0000000000240027002A0004040404EF
:100160000404040402020202020203030303030361
:10017000010204081020408001020408102001023E
:1001800004081020000102030405500611241FBEBC
:10019000CFEFD8E0DEBFCDBF22E0AAE5B1E001C0DD
:1001A0001D92AD32B207E1F711E0A0E0B1E0EAE262
:1001B000F4E102C005900D92AA35B107D9F710E01D
:1001C000C6ECD0E004C02197FE010E94040AC53CA1
:1001D000D107C9F70E94A0060C94130A0C940000E2
:1001E00090E0FC01E059FE4F2491845A9E4FFC019F
:1001F0008491882399F090E0880F991FFC01EE5AB2
:10020000FE4FA591B491FC01E85BFE4F859194915E
:100210008FB7F894EC91E22BEC938FBF089590E0A8
:10022000FC01EC5CFE4F2491FC01E059FE4F34913F
:10023000FC01E45AFE4FE491EE23C9F0222339F089
:10024000233001F1A8F4213019F1223029F1F0E036
:10025000EE0FFF1FE85BFE4FA591B4918FB7F894A6
:10026000EC91611126C030953E233C938FBF0895D9
:100270002730A9F02830C9F0243049F78091800058
:100280008F7D03C0809180008F7780938000DFCFC7
:1002900084B58F7784BDDBCF84B58F7DFBCF809114
:1002A000B0008F778093B000D2CF8091B0008F7D67
:1002B000F9CF3E2BDACF682F80910A020E940F01FE
:1002C00080912802909129028230910538F0880FA0
:1002D000991F880F991F05970197F1F7089581E0FD
:1002E0000C945B01682F8091090290910A02891396
:1002F0000C940F0108953FB7F89480916501909197
:100300006601A0916701B091680126B5A89B05C060
:100310002F3F19F00196A11DB11D3FBFBA2FA92F84
:10032000982F8827BC01CD01620F711D811D911D81
:1003300042E0660F771F881F991F4A95D1F70895ED
:100340008F929F92AF92BF92CF92DF92EF92FF92E5
:100350004B015C010E947B016B017C010E947B01CF
:100360006C197D098E099F09683E734081059105CE
:10037000A8F321E0821A9108A108B10888EEC80EFE
:1003800083E0D81EE11CF11C81149104A104B10486
:1003900029F7FF90EF90DF90CF90BF90AF909F90A4
:1003A0008F9008952FB7F894609161017091620168
:1003B00080916301909164012FBF0895AF92BF9225
:1003C000CF92DF92EF92FF920F931F93CF93DF9321
:1003D0006C017B018B01040F151FEB015E01AE1850
:1003E000BF08C017D10759F06991D601ED91FC9172
:1003F0000190F081E02DC6010995892B79F7C5019F
:10040000DF91CF911F910F91FF90EF90DF90CF90F0
:10041000BF90AF900895FC01538D448D252F30E09F
:10042000842F90E0821B930B541710F0CF96089501
:1004300001970895FC01918D828D981761F0A28D2E
:10044000AE0FBF2FB11D5D968C91928D9F5F9F73F4
:10045000928F90E008958FEF9FEF0895FC01918DAA
:10046000828D981731F0828DE80FF11D858D90E017
:1004700008958FEF9FEF0895FC01918D228D892FB4
:1004800090E0805C9F4F821B91098F73992708959C
:1004900089E691E00E943C0221E0892B09F420E0EA
:1004A000822F089580E090E0892B29F00E94480275
:1004B00081110C9400000895FC01A48DA80FB92FA0
:1004C000B11DA35ABF4F2C91848D90E001968F737C
:1004D0009927848FA689B7892C93A089B1898C919B
:1004E000837080648C93938D848D981306C00288EA
:1004F000F389E02D80818F7D80830895EF92FF92B4
:100500000F931F93CF93DF93EC0181E0888F9B8D36
:100510008C8D98131AC0E889F989808185FF15C0F0
:100520009FB7F894EE89FF896083E889F989808113
:100530008370806480839FBF81E090E0DF91CF91E2
:100540001F910F91FF90EF900895F62E0B8D10E004
:100550000F5F1F4F0F731127E02E8C8D8E110CC073
:100560000FB607FCFACFE889F989808185FFF5CFBE
:10057000CE010E945C02F1CFEB8DEC0FFD2FF11D3F
:10058000E35AFF4FF0829FB7F8940B8FEA89FB89FB
:1005900080818062CFCF0F931F93CF93DF938C0125
:1005A000D0E0C0E0F801EC0FFD1F6491662341F03C
:1005B00089E691E00E947E02892B11F02196F2CF0C
:1005C000CE01DF91CF911F910F910895CF93DF93CB
:1005D000EC01888D8823B9F0AA89BB89E889F9895B
:1005E0008C9185FD03C0808186FD0DC00FB607FC90
:1005F000F7CF8C9185FFF2CF808185FFEDCFCE01C3
:100600000E945C02E9CFDF91CF9108958EBD00007A
:100610000DB407FEFDCF8EB508950F931F93009183
:100620000B0210910C0220910D0230910E0240E05D
:1006300052E16AE770E080E00417150726073707E4
:1006400040F476956795579547958F5F8630A1F76B
:1006500087E0982F906A9695809581709CBD8DBD9E
:1006600080E01F910F910C945B01CF93DF93D82F03
:10067000C62F0E940D038D2F80620E940603809377
:100680000F028C2F0E940603DF91CF910C946F0113
:1006900060911B0261FD0AC0626060931B0280E0F2
:1006A0000E9435038BE19EE40197F1F70895CF9303
:1006B000C82F0E940D038C2F0E94060380930F0207
:1006C0008FEF0E940603C82F0E946F018C2FCF91DD
:1006D0000895CF9386E00E945703C82FC77D85E514
:1006E00090E0A0E0B0E08093240290932502A093D4
:1006F0002602B09327026C2F86E00E94350386E025
:100700000E94570391E0C81390E0892FCF9108957C
:10071000FF920F931F93CF93DF93C82FF62E072FCF
:10072000142F0E940D038C2F80620E940603809379
:100730000F02CF2DD02F115020F089910E94060377
:10074000FACFDF91CF911F910F91FF900C946F0121
:100750000E94480360911B02616060931B0280E06D
:100760000E94350360E787E00E94350381E00E9424
:10077000720180911D02882339F040911F0261E1CE
:1007800072E08AE00C94880382E00E945703E4E858
:10079000F1E0E49121E030E001C0220FEA95EAF7B0
:1007A0002095622F682382E00E94350310921D027B
:1007B0000895CF93C82F0E940D038C2F0E9406032B
:1007C00080930F02CF910C946F0181EE0E94D903A8
:1007D00080910F0208950E940D0380E50E94060398
:1007E00080930F0283E70E9406030C946F01EF923F
:1007F000FF920F931F93CF93DF937C01EB0187E16F
:100800000E94570380FD3CC08FEF0E94D903809166
:100810000F0290E0959587958770888380912002DC
:10082000C0E0D0E2811107C0C0911002DC2FC132BC
:1008300008F0D0E2CD1B0E940D0381E60E94060362
:1008400080930F028701D15038F08FEF0E9406038A
:10085000F80181938F01F7CFC15020F08FEF0E94F4
:100860000603FACF0E946F0160E487E00E9435031F
:1008700081E0DF91CF911F910F91FF90EF9008954C
:1008800080E0F7CF0F931F93CF93DF93EC0107E046
:1008900012E0F801408DBC018AE00E948803F80153
:1008A000408DBE0180E10E948803F801408D50E038
:1008B000BE0186E192E0DF91CF911F910F910C94E0
:1008C0000A0AFC0101900020E9F73197AF01481BAB
:1008D000590BBC0189E691E00C94DE018F929F9246
:1008E000AF92BF920F931F93CF93DF93CDB7DEB735
:1008F000A1970FB6F894DEBF0FBECDBF19A242304C
:1009000008F44AE08E010F5D1F4F842E912CB12C0C
:10091000A12CA50194010E94E209E62FB901CA01A8
:10092000EA30F4F4E05DD801EE938D01232B242B03
:10093000252B79F790E080E0109719F0CD010E9407
:100940006104A1960FB6F894DEBF0FBECDBFDF9154
:10095000CF911F910F91BF90AF909F908F9008956E
:10096000E95CE1CFCF93DF930E94CB02EC0183E4FB
:1009700091E00E9461048C0F9D1FDF91CF9108953B
:10098000CF92DF92EF92FF920F931F93CF93DF935B
:10099000CDB7DEB7A0970FB6F894DEBF0FBECDBFC0
:1009A0007C018E010F5F1F4F80E2F80111928A9542
:1009B000E9F7C8010E940A0A80E00E947201809152
:1009C0002402909125028230910538F0880F991FFA
:1009D000880F991F05970197F1F780911E028111E9
:1009E0000E94E50360911B026E7F60931B0280E012
:1009F0000E94350340911F0266E172E08AE00E9486
:100A0000880382E00E945703E4E8F1E0E49161E0AA
:100A100070E001C0660FEA95EAF7682B82E00E9459
:100A20003503C7010E9442048091200281111BC03E
:100A300080911002E82E813210F090E2E92EF82E1B
:100A4000FE180E940D0380EA0E94060380930F02A5
:100A50006801EA94FFEFEF1651F0F60181916F0102
:100A60000E940603F6CFF12C80E2E82EEACFFA943A
:100A7000FFEFFF1621F080E00E940603F8CF0E94EE
:100A80006F0181E00E9472010E94D2016B017C0122
:100A90008FEF0E94D90380910F028073E9F40E94C6
:100AA000D2016C197D098E099F0960367105810597
:100AB000910570F382EE0E94D9030E94E5038091B4
:100AC00022029091230201969093230280932202A6
:100AD00080E00E947201A8CF80E00E94720160E76E
:100AE00087E00E94350380910F0211E084FF03C06C
:100AF0000E94E50310E00E94A803812FA0960FB684
:100B0000F894DEBF0FBECDBFDF91CF911F910F9143
:100B1000FF90EF90DF90CF900895CF93DF9300D0B8
:100B200000D000D0CDB7DEB71B821C821D821E8292
:100B300020E8298322E02A83029639F046E050E03B
:100B4000BE016F5F7F4F0E94C00426960FB6F894D7
:100B5000DEBF0FBECDBFDF91CF9108951F920F92E0
:100B60000FB60F9211242F933F938F939F93AF93C0
:100B7000BF938091610190916201A0916301B09156
:100B800064013091600123E0230F2D3758F5019661
:100B9000A11DB11D209360018093610190936201BA
:100BA000A0936301B0936401809165019091660107
:100BB000A0916701B09168010196A11DB11D8093BC
:100BC000650190936601A0936701B0936801BF919E
:100BD000AF919F918F913F912F910F900FBE0F90EA
:100BE0001F90189526E8230F0296A11DB11DD2CFA4
:100BF0001F920F920FB60F9211242F933F934F9392
:100C00005F936F937F938F939F93AF93BF93EF9374
:100C1000FF9389E691E00E945C02FF91EF91BF9102
:100C2000AF919F918F917F916F915F914F913F9184
:100C30002F910F900FBE0F901F9018951F920F923B
:100C40000FB60F9211242F938F939F93EF93FF93DF
:100C5000E0917901F0917A018081E0917F01F0913A
:100C6000800182FD1BC09081809182018F5F8F7314
:100C700020918301821741F0E0918201F0E0E75971
:100C8000FE4F958F80938201FF91EF919F918F91FD
:100C90002F910F900FBE0F901F9018958081F4CF69
:100CA000E9E6F1E01382128288EE93E0A0E0B0E082
:100CB00084839583A683B78385E391E091838083C2
:100CC00085EC90E09587848784EC90E09787868711
:100CD00080EC90E0918B808B81EC90E0938B828B09
:100CE00082EC90E0958B848B86EC90E0978B868BE2
:100CF000118E128E138E148EE7E0F2E089E082836B
:100D00008AE0838380E896E9A8E9B0E0848395834C
:100D1000A683B78380E28187158A168A85E0808F53
:100D200081E0818F128E85E090E0A0E0B0E081A3A9
:100D300092A3A3A3B4A386E092E091838083089555
:100D4000CF93DF93CDB7DEB7C354D1090FB6F89474
:100D5000DEBF0FBECDBF789484B5826084BD84B5FC
:100D6000816084BD85B5826085BD85B5816085BDA6
:100D700080916E00816080936E001092810080915E
:100D800081008260809381008091810081608093E6
:100D90008100809180008160809380008091B1000B
:100DA00084608093B1008091B00081608093B00036
:100DB00080917A00846080937A0080917A008260CA
:100DC00080937A0080917A00816080937A0080918C
:100DD0007A00806880937A001092C100E0917901D6
:100DE000F0917A0182E08083E0917501F0917601C3
:100DF0001082E0917701F091780180E18083109278
:100E00008101E0917D01F0917E0186E08083E09197
:100E10007B01F0917C01808180618083E0917B0186
:100E2000F0917C01808188608083E0917B01F0916A
:100E30007C01808180688083E0917B01F0917C015E
:100E400080818F7D80836AE070E080E090E00E9486
:100E5000A0011FB7F89480915A01811124C0E6E6E1
:100E6000F1E08491EAE7F1E09491E82FF0E0EE0FF1
:100E7000FF1FEE5AFE4FA591B491EC91E92321F4A6
:100E800061E08AE00E940F018AE00E94F0008CB5C8
:100E900080618CBD8CB580648CBD8DE00E94F000BB
:100EA0008BE00E94F00080915A018F5F80935A017D
:100EB0001FBF809109028F3F09F405C190910A027A
:100EC0009F3F09F400C1891731F00E94F000809122
:100ED0000A020E94F00080E00E94720181E00E94FC
:100EE0005B0165E070E080E090E00E94A0016FE5AA
:100EF00084E00E9435030E9469038DE10E9457033C
:100F0000182F0E94EB038DE10E94570391E0181304
:100F100090E090931C02882341F0181302C00E94B5
:100F2000EB0360E08DE10E94350310921E0260E049
:100F30008CE10E943503109220026FE381E00E9451
:100F4000350363E082E00E94350380E28093100263
:100F500011E160911002812F0E9435031F5F17314C
:100F6000C1F763E083E00E94350385E080931F02B0
:100F70006CE40E94350360E787E00E94350382EE4F
:100F80000E94D9030E94E5036CE780E00E943503CC
:100F900080E00E94570380931B020E9448038091C7
:100FA0001B028E3709F08FC064E685E00E9435038E
:100FB00086E00E945703887F682F656086E00E9464
:100FC00035030E9469036FE584E00E943503609158
:100FD0001B026C6060931B0280E00E94350380E27C
:100FE0008093100211E160911002812F0E9435035D
:100FF0001F5F1731C1F76FE381E00E943503E9E617
:10100000F0E0849140911F0265E071E00E94880346
:1010100082E00E945703E5E8F1E0E49101E010E08E
:10102000B80101C0660FEA95EAF7682B82E00E94DA
:101030003503EAE6F0E0849141E060E071E00E946F
:10104000880382E00E945703E6E8F1E0E49101C0E2
:10105000000FEA95EAF7682F602B82E00E943503C3
:1010600080E191E00E9442040E94A80381E890E0A0
:101070000E94B20424961FAE249727E0E22EBE0100
:101080006D5B7F4FCE0181960E94F703882309F4A0
:1010900013C124968FAD2497813009F0E2C089A155
:1010A0008130B9F0813891F410E000E089A18130FD
:1010B00009F05CC00115110509F058C087EE90E0F9
:1010C0000E94B204DCCF8EE690E0D2CF8131B9F637
:1010D000EBCF0AA11BA1CCA0DDA08FA498A8A9A842
:1010E000BAA882E191E00E94CB02B80190E080E0D2
:1010F0004AE00E946E0489E091E00E94CB02B601B2
:1011000090E080E04AE00E946E0483E091E00E945B
:10111000CB024AE0C501B4010E946E0483E491E071
:101120000E9461040115110509F4BECF01301105BB
:10113000A1F002301105A1F003301105A1F083E008
:1011400090E00430110509F0AFCFE89E8001E99EE0
:10115000100D11240B5E1E4FA9CF90E080E0F5CF5B
:1011600081E090E0F2CF82E090E0EFCF40E250E00B
:10117000BE016F5D7F4F80E191E00E94C00481114C
:1011800017C085ED90E00E94B20480915B018F5FF3
:1011900080935B01883020F080EC90E00E94B204E4
:1011A0000115110509F46BCFC8010E948D0567CFA9
:1011B00010925B0189A1813009F061CF0115110501
:1011C00009F45DCF0E94D2014B015C0120EB820E3D
:1011D00024E0921EA11CB11C22961FAE22970E94F1
:1011E000D201681979098A099B0997FFE8C0BE01F5
:1011F0006F5B7F4FCE0101960E94F703882379F33E
:1012000022968FAD2297823051F78981803821F55F
:10121000FA8082E08F1510F492E0F92E8EE990E0CA
:101220000E94CB02EF2DF0E0EE0FFF1FE65FFE4FB6
:1012300080819181009711F00E94610483E491E024
:101240000E94610440E250E0BE016F5F7F4FC80121
:1012500002960E94C00413CF8DE890E00E94B20471
:10126000A3CF823009F00BCF89A1803109F007CFDD
:10127000898341E050E0BE016F5F7F4F87E191E0DD
:101280000E94C00441E050E0BE016F5F7F4F8EE1DD
:1012900091E00E94C00441E050E0BE016F5F7F4FCB
:1012A00085E291E00E94C00441E050E0BE016F5F22
:1012B0007F4F8CE291E0CDCF0E94D20100915C0182
:1012C00010915D0120915E0130915F016B017C0105
:1012D000C01AD10AE20AF30A9701860137FD62C0FB
:1012E000605D7A488F4F9F4F60935C0170935D0102
:1012F00080935E0190935F0180E123968FAF2397E7
:1013000005E111E081E291E00E94CB02F8016191D8
:1013100071917F0190E080E04AE00E946E0483E4D6
:1013200091E00E94610441E050E0BE016E5B7F4F9E
:10133000C7010E94C0040E94D2016B017C01FAEF38
:10134000CF0ED11CE11CF11C22961FAE22970E94E9
:10135000D2016C197D098E099F0997FF1CC0BE013F
:101360006F5B7F4FCE0101960E94F703882379F3CC
:1013700022968FAD2297813051F78981813811F003
:10138000813129F740E250E0BE016F5F7F4F80E17D
:1013900091E00E94C004095F1F4F21E00133120752
:1013A00009F0B0CF80E090E0892B09F463CE0E9471
:1013B0004802882309F45ECE0E9400005BCE81EBD8
:1013C00090E04CCFA1E21A2EAA1BBB1BFD010DC061
:1013D000AA1FBB1FEE1FFF1FA217B307E407F507E5
:1013E00020F0A21BB30BE40BF50B661F771F881FC1
:1013F000991F1A9469F760957095809590959B0157
:10140000AC01BD01CF010895EE0FFF1F0590F491CF
:10141000E02D0994FB01DC0102C001900D924150C6
:0A1420005040D8F70895F894FFCF6C
:10142A004757535631475741593146014E015301E7
:10143A00534552563101004E4F44453102004E4F3A
:10144A0044453203004E4F44453304004E4F444551
:10145A0034000000007E02DE010B02E6023C021AA2
:10146A00022E020D0A0053756363657373004661A9
:0A147A00696C004572726F72000089
:00000001FF
